:020000040800F2
:10000000D80C00207D1A00081D0500081F050008F7
:1000100023050008270500082B0500080000000044
:100020000000000000000000000000002F05000894
:100030003105000800000000330500083505000800
:10004000971A0008971A0008971A0008971A0008CC
:10005000971A0008971A0008191A00083F1A000892
:10006000971A0008971A0008971A0008971A0008AC
:10007000971A0008971A0008971A0008971A00089C
:10008000971A0008971A0008971A0008971A00088C
:10009000971A0008971A0008971A0008971A00087C
:1000A000971A0008971A0008971A0008971A00086C
:1000B0007F180008D7170008971A0008971A000839
:1000C000971A0008971A0008971A0008971A00084C
:1000D000971A000857170008353C0008971A0008BF
:1000E000971A0008971A0008971A0008971A00082C
:1000F000971A0008971A0008971A0008971A00081C
:10010000971A0008971A0008971A0008971A00080B
:10011000971A0008971A0008971A0008971A0008FB
:10012000971A0008971A0008971A0008971A0008EB
:1001300000F002F800F094F80AA090E8000C824465
:100140008344AAF10107DA4501D100F089F8AFF242
:10015000090EBAE80F0013F0010F18BFFB1A43F0A5
:100160000103184710C0000030C00000103A24BF3F
:1001700078C878C1FAD8520724BF30C830C144BF0C
:1001800004680C607047000000230024002500264E
:10019000103A28BF78C1FBD8520728BF30C148BFEA
:1001A0000B6070476E2907F08F82702906F05D871B
:1001B00066290AF0958265290AF0928267290AF079
:1001C0008F826129AFF3008003681B0A28BF41F0CA
:1001D0008001692906F0CE86642906F0CB86752950
:1001E00006F0C8866F2907F08C85782906F02987E4
:1001F000E92907F02785E42907F02485F52907F088
:100200002185EF2907F08985F82906F028870368FA
:10021000DB0928BF41F08001632907F0A884732916
:1002200007F0AD84E32907F06D86F32907F07286A5
:10023000002070471FB59DE8030007F099F907F00B
:10024000B3FD04000020002109F0FCF9401C6060AF
:100250000020002109F00CFAE0601FBD10B510BDB0
:1002600007F046FF1146FFF7E5FF00F009F807F039
:1002700072FF03B4FFF7F2FF03BC07F0E3FF0000D7
:100280008AB00024A14601F01BF94FF4A06002F0EF
:1002900099F900F041FA01F071F801F021F801F04C
:1002A00073FB00F079FC00F051FC01F095F800F0D0
:1002B00079FB4FF4E13001F06DF94FF4E13001F0DA
:1002C000BCF900F07BFF002000F0E9FC002000F00A
:1002D000F4FC00F047FD41F61F4141F2873001F088
:1002E000A0FA41F61F4140F6C31001F047FA69A198
:1002F0006D4801F00CFA03F013FC03E04FF4FA70C0
:1003000001F01BF904F054FC0028F7D1674908609C
:10031000FA2001F012F901206549C1F8800101219C
:10032000644804F0AFFCB4E0282094FBF0F100FB3B
:100330001140002846D1604B604A6149614800F095
:10034000CEFB0F21012001F0A0F805460AF0B4F819
:100350005D4908600846006809F0B4FF05464FF0A3
:1003600066325A4B09F09EFC074609F097F9584946
:1003700008605849564800680AF0E6F8564908608F
:10038000462000F0BCFA18B900F015FB534908608C
:10039000534800780A280CD152494F4800680AF0A7
:1003A0009FF803D200205049087002E001204E4916
:1003B00008704B4800780A2804DA49480078401C45
:1003C00047490870601C80B20446C82854DB1021DD
:1003D000464801F066FC464908704FF40061434806
:1003E00001F05FFC434908704FF480513F4801F031
:1003F00058FC4149087041A12B4801F088F9364862
:10040000006809F05FFF05460E463448006809F0B1
:1004100059FF07468846344800783749097809B9B2
:10042000012100E00021334A12780AB9012200E0DC
:1004300000222F4B1B780BB9012300E00023CDE9EC
:100440000278CDE90456CDE90632CDE908101A4804
:1004500000781A490978CDE900101948037819483D
:1004600002782B492B4806F01FFD2A492A4804F040
:1004700031FC002403F0D8FA032003F030FB81465E
:10048000B9F1000F02D0484604F04FFC0A2001F0F9
:1004900054F849E720486172647761726520696E9B
:1004A0006974204F4B0D0A00003801408001214241
:1004B000000021421C000020050000200400002054
:1004C00003000020020000201400002066664A3F5E
:1004D000100000200000C842180000200C0000207E
:1004E00001000020000048430000002000080140F7
:1004F0000600002007000020080000204F6E654E17
:1005000065745F5075626C6973680D0A00000000C5
:1005100018C1000860000020D4A70008704700BF81
:10052000FEE700BFFEE700BFFEE700BFFEE7704743
:1005300070477047704700000CB500200190009094
:100540006C48006840F480306A49086000BF694820
:10055000006800F4003000900198401C0190009861
:1005600018B90198B0F5A06FF1D16248006800F4A5
:10057000003010B10120009001E0002000900098B0
:10058000012843D15C48006840F010005A490860D7
:100590000846006820F0030008600846006840F044
:1005A0000200086053484068524948600846406865
:1005B00048600846406840F48060486008464068EB
:1005C00020F47C1048600846406840F4E810486019
:1005D0000846006840F08070086000BF4548006829
:1005E00000F000700028F9D04248406820F0030075
:1005F000404948600846406840F00200486000BF3B
:100600003C48406800F00C000828F9D10CBD10B53A
:10061000FFF792FF10BD10B53648006840F00100AA
:100620003449086008464068344908403149486008
:1006300008460068324908402E49086008460068AC
:1006400020F4802008600846406820F4FE004860DE
:100650004FF41F008860FFF7DAFF4FF00060294970
:10066000086010BD10B5002100200022214B5B68FE
:1006700003F00C0121B1042906D0082928D107E094
:10068000214B224C236027E01F4B204C236023E0AA
:10069000184B5B6803F47010164B5B6803F48032F0
:1006A000022303EB904022B9194B4343174C2360BC
:1006B0000DE0104B5B6803F4003323B1144B43434C
:1006C000124C236003E0104B4343104C236003E0C3
:1006D0000D4B0E4C236000BF00BF064B5B68C3F39D
:1006E00003130C4CE15C094B1B68CB40074C2360A7
:1006F00010BD000000100240002002400000FFF882
:10070000FFFFF6FE08ED00E000127A002000002056
:1007100000093D002400002008B50121142001F04B
:10072000E9FC1020ADF800008DF8030003208DF8DF
:10073000020069460A4801F021FA1021084801F038
:10074000CAFA4FF40050ADF800006946054801F0C0
:1007500015FA4FF40051034801F0BDFA08BD00003E
:100760000008014000100140002001E0411CC8B217
:100770000A28FBDB704710B58020974908604020AD
:100780000860FFF7F1FF80209349091D0860FFF71B
:10079000EBFF40209049091D0860FFF7E5FF10BD01
:1007A00010B580208C49091D08604020091F086091
:1007B000FFF7DAFF80208849086010BD70B5044655
:1007C000002520E004F0800018B1802082490860F4
:1007D00003E080208049091D0860FFF7C5FF402025
:1007E0007D490860FFF7C0FF40207B49091D086074
:1007F000072D02D18020091F08606006040EFFF754
:10080000B3FF681CC5B2082DDCDB70BD70B50024D9
:10081000002516E06006040E40206F490860FFF7CF
:10082000A3FF6D480838006800F0800008B1601C24
:10083000C4B240206849091D0860FFF795FF681C95
:10084000C5B2082DE6DB204670BD10B58020624998
:100850000860FFF789FF40205F490860FFF784FFC9
:100860005D480838006800F0800008B1012400E00D
:10087000002440205849091D0860FFF775FF2046F5
:1008800010BD10B580205449091D0860FFF76CFFAA
:10089000402051490860FFF767FF40204E49091D7D
:1008A0000860FFF761FF80204B49086010BD10B55C
:1008B000802049490860FFF757FF402046490860FB
:1008C000FFF752FF40204449091D0860FFF74CFF25
:1008D00010BD08B50121082001F00CFCC020ADF8C6
:1008E000000003208DF8020014208DF803006946F3
:1008F0003948103801F042F9FFF752FF08BD70B5D2
:100900000446FFF738FF2046FFF758FFFFF79DFF2B
:100910000546FFF745FF284670BD10B50446FFF7B2
:100920002AFF4620FFF74AFFFFF78FFF012800D17B
:1009300010BD2046FFF742FFFFF787FF012801D1D6
:100940000220F5E7FFF72CFF0020F1E710B50024A7
:10095000FFF711FF4720FFF731FFFFF776FF012870
:1009600001D1002010BDFFF751FF0446FFF789FFBA
:10097000FFF74CFF00EB042084B2FFF798FFFFF76E
:100980000FFF2046EEE710B50120FFF7C6FF10BDB0
:1009900010B50020FFF7C1FF10BD10B50720FFF70D
:1009A000BCFF10BD10B5FFF794FFFFF7ECFF102060
:1009B000FFF7B3FF10BD70B5FFF7C8FF064609F09B
:1009C0007BFD0546054909F0B5FC04464FF07E5114
:1009D00009F0BAFD70BD0000100C0140CDCC8C3F79
:1009E00010B56A48006820F00F00684908600846A2
:1009F000006840F00300086000206549086014208A
:100A000000F09BFD01206349C1F8A0011E2000F009
:100A100070FD10BD10B500245C48006820F00F0088
:100A20005A4908600846006840F00800086004E081
:100A3000601CC4B2012000F05CFD5548803800689D
:100A400008B1642CF4DB642C01DB012010BD002410
:100A500004E0601CC4B2012000F04BFD4C4880381B
:100A6000006808B9642CF4DB642C01DB0120EDE79D
:100A70000020EBE710B5002404E0601CC4B20120A4
:100A800000F037FD42488038006808B1642CF4DB80
:100A9000002404E0601CC4B2012000F02AFD3C48A0
:100AA0008038006808B9642CF4DB282000F021FDB0
:100AB00037488038006808B1012010BD0020FCE7ED
:100AC00070B50024002506E06006040EFFF7D2FF93
:100AD0000443681CC5B2082DF6DB204670BD2DE925
:100AE000FC4105460E4617469846FFF779FFFFF78B
:100AF00091FF30BB002405E0FFF7E2FF0DF8040092
:100B0000601CC4B2052CF7DB9DF800009DF80110B5
:100B100008449DF8021008449DF8031008449DF80D
:100B20000410884210D19DF8000028709DF8010043
:100B300030709DF8020038709DF8030088F80000BE
:100B400002E00120BDE8FC810020FBE708B501219F
:100B5000042001F0CFFA4FF48070ADF800001020AF
:100B60008DF8030003208DF8020069460748001F36
:100B700001F004F84FF480710448001F01F0ABF855
:100B8000FFF72EFFFFF746FF08BD000004080140F5
:100B9000A00121420000214208B50121042001F0FA
:100BA000A9FA0120ADF8000010208DF80300032001
:100BB0008DF802006946044800F0E0FF0121024878
:100BC00001F089F808BD00000008014010B520219F
:100BD000FB4801F080F88021F94801F07EF880217F
:100BE000F74801F078F810BD10B52021F44801F065
:100BF00072F82021F24801F070F810BD70B504467B
:100C000000251BE02021EE4801F067F804F0800089
:100C100020B18021EA4801F05EF803E08021E84835
:100C200001F05BF82021E64801F055F82021E44866
:100C300001F053F86006040E681CC5B2082DE1DB14
:100C400070BD10B58021DE4801F045F82021DC4858
:100C500001F041F88021DA4801F03FF82021D8481E
:100C600001F03BF810BD70B505460C46FFF7E9FFF3
:100C70007820FFF7C3FFFFF7B7FF1CB14020FFF755
:100C8000BDFF02E00020FFF7B9FFFFF7ADFF2846E8
:100C9000FFF7B4FFFFF7A8FFFFF798FF70BD10B58F
:100CA00004461CB90021A620FFF7DDFF012C03D16B
:100CB0000021A720FFF7D7FF10BD10B504463CB9AF
:100CC0000021C820FFF7CFFF0021A120FFF7CBFFB5
:100CD000012C07D10021C020FFF7C5FF0021A02073
:100CE000FFF7C1FF10BD10B500218D20FFF7BBFF3E
:100CF00000211420FFF7B7FF0021AF20FFF7B3FF5B
:100D000010BD10B500218D20FFF7ADFF0021102090
:100D1000FFF7A9FF0021AF20FFF7A5FF10BD70B5B9
:100D200000241CE004F1B001C8B20021FFF79BFFD2
:100D300000210846FFF797FF00211020FFF793FFDF
:100D4000002508E09F4901EBC501085D0121FFF77F
:100D50008AFF681CC5B2802DF4DB601CC4B2082C6D
:100D6000E0DB70BD70B500240CE0002506E000203B
:100D7000944901EBC5010855681CC5B2802DF6DB0E
:100D8000601CC4B2082CF0DBFFF7C9FF70BD70B562
:100D90000A46CE1701EB5676C6F3C703CE1701EB12
:100DA0005676F610A1EBC606F4B20122A240D5B2E7
:100DB000844A02EBC002D25C2A43824E06EBC00694
:100DC000F25470BD70B50B46CE1701EB5676C6F3E4
:100DD000C702CE1701EB5676F610A1EBC606F4B2A9
:100DE0000123A340DDB2774B03EBC0039B5CDB43E5
:100DF000744E06EBC006B354724B03EBC0039B5C0E
:100E00002B43704E06EBC006B3546E4B03EBC0038E
:100E10009B5CDB436B4E06EBC006B35470BD2DE903
:100E2000F84F05460E4617469846002D0ADB802FE0
:100E300008DC002E06DBB8F1400F03DCBD4201DC0C
:100E4000464501DDBDE8F88FBD420DD1002406E026
:100E50003019C1B22846FFF79AFF601CC4B2A8EB54
:100E60000600A042F4DC30E046450CD1002406E048
:100E70002919C8B23146FFF78AFF601CC4B2781B3B
:100E8000A042F5DC21E0A8EB060000F0FF0A781B89
:100E900000F0FF0B0AEB8A00400090FBFBF000F033
:100EA000FF0900240EE004FB09F00A2190FBF1F099
:100EB0003044C0B229190090C8B20099FFF767FF0B
:100EC000601CC4B2781BA042EDDC00BFBAE72DE97C
:100ED000F04306460F469046002544463BE03A1B49
:100EE000D1B27219D0B2FFF752FF3A1BD1B2721BC6
:100EF000D0B2FFF74CFF3A19D1B2721BD0B2FFF754
:100F000046FF3A19D1B27219D0B2FFF740FF7A19F1
:100F1000D1B23219D0B2FFF73AFF7A1BD1B23219EF
:100F2000D0B2FFF734FF7A1BD1B2321BD0B2FFF739
:100F30002EFF7A19D1B2321BD0B2FFF728FF6D1CF9
:100F400005FB05F004FB040008FB1809B9F1000FCC
:100F500001DD641E6D1E6000604308FB08F18842DD
:100F6000BDDABDE8F0832DE9FF4F81B080460E4623
:100F70001C4600962046E31704EB5373DB10214612
:100F80004FEAE47C04EB5C7C4FEAEC0CA4EBCC0C69
:100F9000BCF1000F02D04FF0010C01E04FF0000C4B
:100FA0006344224604EBD27C4FEA6C0C03FB0CF347
:100FB00003F0FF0B03982038C7B200254CE0000077
:100FC00000080140600100200C2C07D107EB47000E
:100FD000BF4901EB800010F805A014E0102C05D1EA
:100FE000BC4800EB071010F805A00CE0182C07D146
:100FF00007EBC700B84901EB800010F805A002E03C
:1010000005B0BDE8F08F4FF000091FE00AF0800046
:1010100020B131464046FFF7BAFE03E03146404674
:10102000FFF7D0FE4FEA4A604FEA106A701CC6B262
:101030000098301AA04205D1009E08F1010000F08E
:10104000FF0806E009F1010000F0FF09B9F1080FFF
:10105000DCDB00BF681CC5B25D45B5DB00BFCFE778
:10106000F0B506460F4614461D4613E022782B467F
:1010700039463046FFF777FF284605EBD07106EB7F
:101080006101CEB2C5F18000B04202DA0026B81C80
:10109000C7B2641C2078202802DB20787E28E5DD9A
:1010A000F0BD10B50246012000E050430B1EA1F137
:1010B0000104E1B2F9D110BD2DE9F04F06468A4690
:1010C00091461F46099C00252CE0781B401EC1B2AA
:1010D0000A20FFF7E6FFB9FBF0F00A21B0FBF1F2BE
:1010E00001FB1208B8F1000F0CD1A34604EBDB7131
:1010F000491001FB0561C8B2234630225146FFF773
:1011000032FF0DE0A34604EBDB71491001FB0561E2
:10111000C8B208F13001CAB223465146FFF723FF97
:10112000681CC5B2BD42D0DBBDE8F08F70B5044687
:101130000D4605F1B001C8B20021FFF794FD102162
:1011400041EA14100021FFF78EFD04F00F0141F079
:1011500001000021FFF787FD70BD2DE9F05F054616
:101160000E4617469846DDF828B04FF00009CA46EB
:101170000024E11704EB5171C910A4EBC10101B9BE
:1011800001E0601CC4B2344614E021462846FFF753
:10119000CDFFAA460AE01BF809000121FFF763FD15
:1011A00009F101090AF1010000F0FF0ABA45F2DB7A
:1011B000601CC4B24445E8DBBDE8F09F08B50121DE
:1011C000042000F097FFB020ADF8000010208DF84B
:1011D000030003208DF802006946404800F0CEFC71
:1011E000B0213E4800F077FD0021AE20FFF73BFD27
:1011F00000210846FFF737FD00211020FFF733FDDF
:1012000000214020FFF72FFD00218120FFF72BFD5B
:101210000021CF20FFF727FD0021A120FFF723FDAC
:101220000021C820FFF71FFD0021A620FFF71BFDAE
:101230000021A820FFF717FD00213F20FFF713FD35
:101240000021D320FFF70FFD00210846FFF70BFD1B
:101250000021D520FFF707FD00218020FFF703FDC7
:101260000021D920FFF7FFFC0021F120FFF7FBFC54
:101270000021DA20FFF7F7FC00211220FFF7F3FC32
:101280000021DB20FFF7EFFC00214020FFF7EBFC03
:1012900000212020FFF7E7FC00210220FFF7E3FCFC
:1012A00000218D20FFF7DFFC00211420FFF7DBFC7D
:1012B0000021A420FFF7D7FC0021A620FFF7D3FCD4
:1012C0000021AF20FFF7CFFCFFF74CFD08BD000069
:1012D000DDA7000851AC000841B200080008014039
:1012E00008B50121082000F005FF0120ADF800003D
:1012F00048208DF8030069461D4800F03FFC02209D
:10130000ADF8000048208DF803006946184800F049
:1013100035FC08BD10B5044614B10120154908700C
:1013200014480078B8B11448006818B11248001D7C
:10133000006880B90A2000F000F900200D4908700B
:101340000D48006808B9012010BD0B48001D006859
:1013500060B90220F8E708480068012806D106486D
:10136000001D0068012801D1024908700020EBE748
:10137000000C0140340000200081214208B5012109
:10138000242000F0B7FE4FF40060ADF800001020FC
:101390008DF8030003208DF8020069460D4800F027
:1013A000EDFB4FF400610B4800F095FC4FF48050CA
:1013B000ADF8000010208DF8030003208DF8020026
:1013C0006946044800F0DAFB4FF48051014800F010
:1013D00082FC08BD0008014000B587B001214FF430
:1013E000017000F087FE4FF4004000F0E7FD02209E
:1013F000ADF8040000208DF8070001A92E4800F088
:10140000BDFB2E4802F0E8F8002002908DF80C0099
:101410008DF80D004FF4602004900020059001200D
:101420008DF8180002A9254802F0FDF80121234893
:1014300002F025F9214802F044F900BF1F4802F0EC
:1014400045F90028FAD11D4802F04AF900BF1B48AF
:1014500002F04BF90028FAD107B000BD10B50446E0
:10146000072301222146154802F075F9012113488E
:1014700002F045F900BF0221104802F0B1FA00283D
:10148000F9D00E4802F0CEF910BD2DE9F041074623
:101490000C460025002608E03846FFF7DFFF05442C
:1014A000052000F04AF8701CC6B2A642F4DBB5FB7A
:1014B000F4F080B2BDE8F081000801400024014052
:1014C00010B56FF0040001F0CCF82E4800682E49EA
:1014D000B0FBF1F02D4908700846007800EB4001A0
:1014E000C1EBC0104FF6FF7101EAC0002849088027
:1014F00010BD0146254A12784A434FF0E0235A6155
:1015000000229A611A46126942F001021A6100BF74
:101510004FF0E022106900F001021AB100F48032AD
:10152000002AF5D04FF0E022126922F001024FF0BC
:10153000E0231A6100229A6170470146144A12881A
:101540004A434FF0E0235A6100229A611A46126919
:1015500042F001021A6100BF4FF0E022106900F072
:1015600001021AB100F48032002AF5D04FF0E022D7
:10157000126922F001024FF0E0231A6100229A6101
:10158000704700002000002000127A003600002082
:101590003800002010B586B004460121042000F078
:1015A000A9FD0121880300F0A5FD18208DF8170082
:1015B0004FF40070ADF8140003208DF8160005A953
:1015C0006B4800F0DBFA04208DF817000002ADF83C
:1015D000140003208DF8160005A9654800F0CEFA26
:1015E00001940020ADF810000C20ADF80E00002092
:1015F000ADF80C00ADF80A00ADF8080001A95D488F
:1016000000F01FFE01215B4800F0A7FE012240F21E
:101610002551584800F0ADFE25208DF8000001202E
:101620008DF8030000208DF8010002208DF80200E3
:10163000684600F0CCFF06B010BD10B586B0044679
:101640000121042000F056FD0121480400F05FFD57
:1016500018208DF817000420ADF8140003208DF831
:10166000160005A9424800F089FA04208DF81700F9
:101670000820ADF8140003208DF8160005A93C4899
:1016800000F07CFA01940020ADF810000C20ADF8B9
:101690000E000020ADF80C00ADF80A00ADF808000F
:1016A00001A9354800F0CDFD0121334800F055FE79
:1016B000012240F22551304800F05BFE26208DF8D3
:1016C000000001208DF8030000208DF801008DF846
:1016D0000200684600F07BFF06B010BD2DE9F04126
:1016E00007460C46154600260DE014F8011B384647
:1016F00000F0A0FE00BF4021384600F009FF00289E
:10170000F9D0701C86B2AE42EFDBBDE8F0810FB4B9
:1017100030B5CBB0054601AC50A800904FF49471A1
:1017200001A8009B4F9A05F0A5FB002000900BE05C
:1017300014F8011B284600F07DFE00BF402128461A
:1017400000F0E6FE0028F9D020780028F0D14BB058
:1017500030BC5DF814FB10B540F22551054800F08F
:10176000EDFE18B12021034800F0DFFE10BD00009F
:101770000008014000380140004400407FB50546A4
:101780000C460121022000F0C2FCADF80850ADF873
:1017900004400020ADF80A00ADF8060001A95E483B
:1017A00001F052F8012211465B4801F0C4FB1D20F4
:1017B0008DF8000000208DF8010003208DF8020054
:1017C00001208DF80300684600F001FF0121524816
:1017D00001F096FB7FBD10B501214F4801F059FE85
:1017E000F0B101214C4801F065FE4C48007888B109
:1017F0004B48006808B9012000E000204849086013
:101800004848D0F8800108B9012000E0002046498E
:10181000086005E00120424908604249C1F88001A2
:1018200010BD7FB505460C460121084600F06FFC4F
:10183000ADF80850ADF804400020ADF80A00ADF84E
:10184000060001A94FF0804000F0FEFF0122114682
:10185000900701F070FB1C208DF8000000208DF82F
:10186000010003208DF8020001208DF80300684676
:1018700000F0ADFE0121880701F042FB7FBD70B58D
:101880000121880701F005FE002843D001218807C7
:1018900001F010FE254803782548027825A1294843
:1018A00005F002FB1023274A00210846FFF7D8FB6A
:1018B000254803782548027825A1224805F0F4FA46
:1018C0001023204A19460020FFF7CAFB244800686D
:1018D00008F0F8FC044622460B4622A1194805F000
:1018E000E3FA1023174A20210020FFF7B9FB214813
:1018F000006808F0E7FC044622460B461EA111488A
:1019000005F0D2FA10230F4A30210020FFF7A8FB80
:10191000FFF705FA70BD0000000400400000002041
:10192000B401224200002142800121420500002032
:101930000400002054656D703A25642E2564204310
:1019400000000000E005002003000020020000204D
:1019500048756D3A25642E25642025250000000079
:101960000C0000204C696768743A252E3166204CC3
:101970007800000018000020536F6D673A252E3163
:10198000662070706D0000000EB50121084600F061
:10199000B1FBFFF7A5FC0021012000F005FA0120B2
:1019A000019000208DF808000C208DF8090001201E
:1019B0008DF80A0001A801F08FFD0121084600F012
:1019C000F3F90220019000208DF808000C208DF81A
:1019D000090001208DF80A0001A801F07DFD062014
:1019E0008DF8000002208DF801008DF80200012022
:1019F0008DF80300684600F0EAFD07208DF800002E
:101A000002208DF8010001208DF802008DF80300FE
:101A1000684600F0DCFD0EBD10B50A20FFF78DFD15
:101A20001248006838B91248006808B9012000E07F
:101A300000200F490860012001F0C5FD10BD10B560
:101A40000A20FFF77AFD0948001D006850B90948CF
:101A5000007808B9012000E0002006490870002045
:101A600005490870022001F0AEFD10BD0081214241
:101A70009001214200000020010000200948804719
:101A800009480047FEE7FEE7FEE7FEE7FEE7FEE760
:101A9000FEE7FEE7FEE7FEE704480549054A064B78
:101AA000704700001706000831010008D806002022
:101AB000D80C0020D8080020D808002010B5044613
:101AC000CC48844208D10121042000F02DFB0021E4
:101AD000042000F029FB46E0C748844208D10121D8
:101AE000082000F021FB0021082000F01DFB3AE057
:101AF000C248844208D10121102000F015FB0021CA
:101B0000102000F011FB2EE0BD48844208D10121D5
:101B1000202000F009FB0021202000F005FB22E03E
:101B2000B848844208D10121402000F0FDFA00218C
:101B3000402000F0F9FA16E0B348844208D10121B0
:101B4000802000F0F1FA0021802000F0EDFA0AE098
:101B5000AE48844207D10121801500F0E5FA00214A
:101B6000A01500F0E1FA10BD10B50121084600F003
:101B7000DBFA0021012000F0D7FA10BD2DE9F04179
:101B8000024600250026002000230024002791F8AB
:101B900003C00CF00F0591F803C00CF0100CBCF161
:101BA000000F03D091F802C04CEA050591F800C07F
:101BB000BCF1000F31D0146800202BE04FF0010C75
:101BC0000CFA00F3B1F800C00CEA03069E4220D1E3
:101BD00083004FF00F0C0CFA03F7BC4305FA03FC2B
:101BE0004CEA040491F803C0BCF1280F06D14FF071
:101BF000010C0CFA00FCC2F814C00AE091F803C012
:101C0000BCF1480F05D14FF0010C0CFA00FCC2F8F2
:101C100010C0401C0828D1D31460B1F800C0BCF13A
:101C2000FF0F34DD546800202EE000F1080C4FF067
:101C3000010808FA0CF3B1F800C00CEA03069E4252
:101C400021D183004FF00F0C0CFA03F7BC4305FAC7
:101C500003FC4CEA040491F803C0BCF1280F05D141
:101C600000F1080C08FA0CF8C2F8148091F803C0CF
:101C7000BCF1480F07D100F1080C4FF0010808FA39
:101C80000CF8C2F81080401C0828CED35460BDE880
:101C9000F0814FF6FF710180022181700421C17033
:101CA00070470246002093680B400BB1012000E012
:101CB000002070470146886880B2704702460020C5
:101CC000D3680B400BB1012000E0002070470146B3
:101CD000C86880B2704701617047416170470AB1BE
:101CE000016100E041617047C16070474FF480328C
:101CF0000A4382618161826182698269704702461A
:101D00000020434B18684FF68073184040EA0210D9
:101D100008433F4B186070473E49C8617047F0B5B3
:101D20000A46002300240021002500F00046B6F1F9
:101D3000004F02D1364EF16901E0354E7168C0F3B3
:101D4000034583B200F44016B6F5401F08D121F0D8
:101D500070612F4E766826F070662D4F7E6012E01F
:101D600000F48016B6F5801F06D1032606FA05F4A6
:101D7000A14341F0706106E0460D360103FA06F614
:101D8000B14341F0706122B1460D360103FA06F607
:101D9000314300F00046B6F1004F02D11C4EF16114
:101DA00001E01B4E7160F0BD30B500228B071C0FA7
:101DB0000F2303FA04F2164B08338C1053F8243027
:101DC0009343134C08348D1044F8253023468C106F
:101DD00053F824308C07240F00FA04F423430C4CEE
:101DE00008348D1044F8253030BD0A49DC310860D4
:101DF0007047000000080140000C01400010014045
:101E00000014014000180140001C01400020014066
:101E10000000014000002042DF48006840F001005F
:101E2000DD49086008464068DC490840DA494860F6
:101E300008460068DA490840D74908600846006843
:101E400020F4802008600846406820F4FE004860C6
:101E50004FF41F0088607047CF49096821F4803132
:101E6000CD4A11601146096821F480211160B0F556
:101E7000803F03D0B0F5802F0ED106E0C649096837
:101E800041F48031C44A116007E0C349096841F454
:101E9000A021C14A116000E000BF00BF704710B52B
:101EA00001460022002300204A11012A02D1BA4C27
:101EB000236806E0022A02D1B74C236A01E0B64C3F
:101EC000636A01F01F02012494401C400CB1012000
:101ED00000E0002010BD38B500200090002400254F
:101EE00000BF3120FFF7DBFF05460098401C009043
:101EF0000098B0F5A06F01D0002DF2D03120FFF78F
:101F0000CEFF08B1012400E00024204638BD014680
:101F10000020A14A106820F0F80040EAC1001060DB
:101F20007047A04908607047024600209A4B5868E5
:101F300020F47C1042EA01031843974B5860704725
:101F400098490866704701460020934A506820F07F
:101F500003000843506070478F48406800F00C0051
:101F60007047014600208C4A506820F0F00008437A
:101F70005060704701460020874A506820F4E060B6
:101F800008435060704701460020834A506820F49F
:101F9000605040EAC1005060704729B17E4A527AD1
:101FA00002437D4B5A7204E07B4A527A82437A4B59
:101FB0005A7270477B49D83108607047014600204B
:101FC000754A506820F44040084350607047002133
:101FD000714A20321170704A82F82010012802D014
:101FE00004280AD104E001216B4A2032117005E077
:101FF0000521694A2032117000E000BF00BF704720
:102000006949086070476449096A0143624A11627C
:102010007047654944390860704730B50021002297
:10202000002400235C4D6D6805F00C0121B10429EA
:1020300005D0082923D105E05C4D056022E05B4D09
:1020400005601FE0544D6D6805F47012524D6D68C7
:1020500005F48034022505EB92421CB9544D5543DA
:1020600005600BE04C4D6D6805F400351DB1504D19
:102070005543056002E04D4D5543056002E04B4D70
:10208000056000BF00BF444D6D6805F0F00109090F
:10209000484D6B5C0568DD4045603F4D6D6805F45B
:1020A000E061090A434D6B5C4568DD4085603A4D4F
:1020B0006D6805F46051C90A3E4D6B5C4568DD40B2
:1020C000C560354D6D6805F44041890B3A4D6B5C38
:1020D000C568B5FBF3F5056130BD29B12E4A5269DB
:1020E00002432D4B5A6104E02B4A526982432A4B2A
:1020F0005A61704729B1284A92690243264B9A6176
:1021000004E0254A92698243234B9A61704729B1C2
:10211000214AD2690243204BDA6104E01E4AD269A7
:1021200082431D4BDA61704729B11B4AD2680243D2
:10213000194BDA6004E0184AD2688243164BDA6021
:10214000704729B1144A12690243134B1A6104E023
:10215000114A12698243104B1A6170471249403983
:10216000086070470F49C86470470B49C8717047D1
:102170000948406A40F0807007494862704701464C
:102180000020054A92680A400AB1012000E00020C0
:102190007047014988727047001002400000FFF844
:1021A000FFFFF6FE000042428004424200127A0025
:1021B00000093D003A0000204A00002010B5044606
:1021C000FB48844209D101218803FFF7ADFF0021BC
:1021D0004FF48040FFF7A8FF32E0F648844209D16F
:1021E00001214804FFF7ADFF00214FF40030FFF755
:1021F000A8FF25E0F048844209D101218804FFF7B7
:10220000A0FF00214FF48020FFF79BFF18E0EB4870
:10221000844209D10121C804FFF793FF00214FF444
:102220000020FFF78EFF0BE0E548844208D1012132
:102230000805FFF786FF00214FF48010FFF781FFAC
:1022400010BD2DE9F04786B005460E460024A24693
:1022500000BFA1460027B08900B100BF2F462C8ADD
:102260004CF6FF700440F08804432C82AC894EF693
:10227000F3100440B088318908437189084304434E
:10228000AC81AC8A4FF6FF400440B0890443AC8275
:1022900001A8FFF7C2FEC648874202D1DDF810A0B0
:1022A00001E0DDF80CA0A88900F4004040B10AEB81
:1022B000CA0000EB0A1031684900B0FBF1F807E0F2
:1022C0000AEBCA0000EB0A1031688900B0FBF1F894
:1022D0006420B8FBF0F004012009642101FB10899F
:1022E000A88900F4004040B1322000EBC900B0FBE7
:1022F000F1F000F00700044308E0322000EB091081
:102300006421B0FBF1F000F00F0004432C8106B013
:10231000BDE8F0874FF41651016000218180C18033
:1023200001810C21418100218181704710B5024655
:102330000020108A4FF2FF0318400B884C8823437B
:102340008C882343CC8823431843108210BD00217E
:10235000018041808180C180704721B1828942F42F
:102360000052828104E082894DF6FF731A40828117
:102370007047F0B50346002400260025002040F6F3
:102380006A17B94200D100BF1846C1F3421401F0E8
:102390001F06012707FA06F5012C01D10C3004E0D5
:1023A000022C01D1103000E014301AB107682F431D
:1023B000076002E00768AF430760F0BD1AB1838A87
:1023C0000B43838202E0838A8B4383827047028AB5
:1023D0004FF6F0731A400282028A0A430282704763
:1023E00082894FF2FF731A40828182890A43828177
:1023F000704721B1828942F00202828104E0828921
:102400004FF6FD731A4082817047028A4FF6DF73E0
:102410001A400282028A0A430282704721B1028A6C
:1024200042F48042028204E0028A4BF6FF731A40B3
:1024300002827047C1F30802828070470146888893
:10244000C0F308007047818941F001018181704724
:10245000028BD2B20283028B42EA012202837047CE
:10246000028B02F47F420283028B0A43028370478D
:1024700021B1828A42F02002828204E0828A4FF6F1
:10248000DF731A408282704721B1828A42F01002C3
:10249000828204E0828A4FF6EF731A40828270478C
:1024A00021B1828A42F00802828204E0828A4FF6D9
:1024B000F7731A408282704721B1828942F4004248
:1024C000828103E08289C2F30E028281704721B1CA
:1024D000828A42F40062828204E0828A4FF2FF73B1
:1024E0001A4082827047828A4FF6FB731A408282BA
:1024F000828A0A438282704721B1828A42F00202B4
:10250000828204E0828A4FF6FD731A40828270470D
:1025100002460020B1F5007F00D100BF13880B40B8
:102520000BB1012000E00020704701F40072B2F509
:10253000007F00D100BFCA430280704770B50246D9
:10254000002400230025002040F66A16B14200D185
:1025500000BFC1F3421501F01F03012606FA03F381
:10256000012D02D19689334006E0022D02D1168A50
:10257000334001E0968A33400C12012606FA04F437
:102580001688344013B10CB1012000E0002070BD6A
:1025900010B50022002340F66A14A14200D100BF0A
:1025A0000A1201249440A3B2DC43048010BD000051
:1025B000003801400044004000480040004C00400A
:1025C0000050004031490143314A1160704770B5F5
:1025D000002100230F22C47804B32D4C246804F496
:1025E000E064C4F5E064210AC1F10403CA40447800
:1025F00004FA03F18478144021430901254C06783C
:10260000A155047804F01F050124AC4005786D1134
:10261000AD0005F1E025C5F8004109E0047804F0BB
:102620001F050124AC401C4D0678761145F8264064
:1026300070BD1A4A0A400243154B1B1F1A607047AF
:1026400039B1134A121D12680243114B1B1D1A6047
:1026500006E00F4A121D126882430D4B1B1D1A60C3
:102660007047042808D14FF0E021096941F00401C6
:102670004FF0E022116107E04FF0E021096921F0FD
:1026800004014FF0E0221161704700000000FA05DC
:102690000CED00E000E400E080E100E080FFFF1FBF
:1026A00010B50446FE48844208D10121C014FFF74A
:1026B0003BFD0021E014FFF737FDC4E0B4F1804F8B
:1026C00008D101210846FFF73CFD00210120FFF75A
:1026D00038FDB8E0F348844208D101210220FFF719
:1026E00030FD00210220FFF72CFDACE0EE488442D3
:1026F00008D101210420FFF724FD00210420FFF769
:1027000020FDA0E0E948844208D101210820FFF71C
:1027100018FD00210820FFF714FD94E0E4488442EE
:1027200008D101211020FFF70CFD00211020FFF738
:1027300008FD88E0DF48844208D101212020FFF70E
:1027400000FD00212020FFF7FCFC7CE0DA488442F9
:1027500008D101214014FFF7E7FC00216014FFF7C6
:10276000E3FC70E0D548844209D10121C804FFF799
:10277000DBFC00214FF40020FFF7D6FC63E0D048DB
:10278000844209D101210805FFF7CEFC00214FF456
:102790008010FFF7C9FC56E0CA48844209D10121E4
:1027A0004805FFF7C1FC00214FF40010FFF7BCFC07
:1027B00049E0C548844208D101214020FFF7C1FC0F
:1027C00000214020FFF7BDFC3DE0C048844208D115
:1027D00001218020FFF7B5FC00218020FFF7B1FC2C
:1027E00031E0BB48844208D101218015FFF7A9FCE4
:1027F0000021A015FFF7A5FC25E0B648844209D1C9
:1028000001210804FFF790FC00214FF48030FFF70E
:102810008BFC18E0B048844209D101214804FFF73D
:1028200083FC00214FF40030FFF77EFC0BE0AB4847
:10283000844208D101218804FFF776FC00214FF47F
:102840008020FFF771FC10BD00220288944B984253
:102850000ED0994B98420BD0B0F1804F08D0914BDD
:10286000984205D0904B984202D0904B984204D1A8
:102870004FF68F731A404B881A438D4B984207D0FE
:102880008C4B984204D04FF6FF431A40CB881A4332
:1028900002808B8883850B880385814B98420BD0FF
:1028A000854B984208D08B4B984205D08A4B984272
:1028B00002D08A4B984201D10B7A0386012383828E
:1028C000704770B5002400220023058C4FF6FE7679
:1028D00035400584028C8388048B4FF68F752C401D
:1028E000B51E2C400D882C43751E2A400D892A43A5
:1028F0004D882A436A4DA8420BD06F4DA84208D09C
:10290000744DA84205D0744DA84202D0734DA84220
:1029100013D14FF6F7752A404D892A434FF6FB75C0
:102920002A408D882A434FF6FF652B404FF6FF550E
:102930002B408D892B43CD892B4383800483CD8805
:102940008586028470BD70B5002400220023058CAA
:102950004FF6EF7635400584028C8388048B48F669
:10296000FF752C404FF6FF452C400D884FF6FF7643
:1029700006EA05252C434FF6DF752A400D8906EA45
:1029800005152A434D8806EA05152A43444DA842F9
:1029900002D0494DA8421DD14FF67F752A404D897E
:1029A0004FF6FF7606EA05152A434FF6BF752A4013
:1029B0008D8806EA05152A434FF6FF352B404FF266
:1029C000FF752B408D8906EA85052B43CD8906EAE4
:1029D00085052B4383800483CD880587028470BDE1
:1029E00070B5002400220023058C4FF6FF663540A9
:1029F0000584028C8388848B4FF68F752C404FF6AC
:102A0000FC752C400D882C434FF6FF552A400D894C
:102A10004FF6FF7606EA05252A434D8806EA052586
:102A20002A431F4DA84202D0234DA8421DD14FF288
:102A3000FF752A404D894FF6FF7606EA05252A43A1
:102A40004FF6FF352A408D8806EA05252A434EF6C3
:102A5000FF752B404DF6FF752B408D8906EA051555
:102A60002B43CD8906EA05152B4383808483CD88CB
:102A70008587028470BD70B5002200230024058C78
:102A80004EF6FF7635400584038C8488828B48F6A9
:102A9000FF752A404FF6FF452A400D8820E00000D0
:102AA000002C01400004004000080040000C0040E1
:102AB000001000400014004000340140004C014070
:102AC000005001400054014000180040001C00402C
:102AD0000020004000400140004401400048014007
:102AE0004FF6FF7606EA05252A434DF6FF752B4083
:102AF0000D8906EA05352B434D8806EA05352B433B
:102B0000FA4DA84202D0FA4DA84208D14BF6FF7503
:102B10002C408D894FF6FF7606EA85152C4384807C
:102B20008283CD88A0F84050038470BD828B4FF221
:102B3000FF331A408283828B4FF6FF7303EA01232F
:102B40001A4382837047F0B50C46154600220021D7
:102B50000026078C4EF6FF7C07EA0C070784828B61
:102B6000018C4FF6FF7707EA043640F6FF473A40FC
:102B70004FF6FF7707EA05273A434FF6FF7707EA54
:102B800003373A43D94FB8420ED0D94FB8420BD091
:102B9000B0F1804F08D0D74FB84205D0D64FB842D9
:102BA00002D0D64FB84206D14DF6FF77394046F4F1
:102BB0008057394305E047F6FF57394044F48057C2
:102BC000394382830184F0BD828B4FF6F3731A4040
:102BD0008283828B0A4382837047F0B50C46154688
:102BE000002200210026078C4FF6FF6C07EA0C0735
:102BF0000784828B018C4FF6FF7707EA04264FF695
:102C00000C773A404FF6FF7707EA03172F433A4312
:102C1000B64FB8420ED0B64FB8420BD0B0F1804F8D
:102C200008D0B44FB84205D0B34FB84202D0B34F2A
:102C3000B84206D14FF6FF57394046F48077394302
:102C400005E04FF2FF57394044F4807739438283DF
:102C50000184F0BD028B4FF2FF331A400283028BD6
:102C60004FF6FF7303EA01231A4302837047F0B55E
:102C70000C461546002200210026078C4FF6EF7CFB
:102C800007EA0C070784028B018C4FF6FF7707EAEF
:102C9000041640F6FF473A404FF6FF7707EA03373E
:102CA0003A434FF6FF7707EA05273A438F4FB8427A
:102CB0000ED08F4FB8420BD0B0F1804F08D08D4F5F
:102CC000B84205D08C4FB84202D08C4FB84206D1E2
:102CD0004FF6DF77394046F01007394305E04FF6ED
:102CE0005F77394044F01007394302830184F0BD17
:102CF000028B4FF6F3731A400283028B0A4302835E
:102D00007047F0B50C46154600220021068C4FF6A0
:102D1000FE773E400684028B018C4FF60C763240E3
:102D20007E1C06EA03162E433243704EB0420ED08C
:102D30006F4EB0420BD0B0F1804F08D06D4EB04214
:102D400005D06D4EB04202D06C4EB04206D14FF667
:102D5000FD76314044F00106314305E04FF6F5764B
:102D6000314044F00106314302830184F0BD70B567
:102D700005460C465D4885420ED05D4885420BD025
:102D8000B5F1804F08D05B48854205D05A4885424E
:102D900002D05A48854200D100E000BF208850B9D7
:102DA0002389A28861882846FFF7ABFFE18828467F
:102DB000FFF79EFF25E0208804280AD12389A288F6
:102DC00061882846FFF753FFE1882846FFF742FF56
:102DD00017E0208808280AD12389A288618828461C
:102DE000FFF7FBFEE1882846FFF7EEFE09E02389A6
:102DF000A28861882846FFF7A6FEE1882846FFF7EB
:102E000095FE70BD2DE9F04105460C4600260127D0
:102E1000608808B9022600E00026A088012801D1B8
:102E2000022700E001272088A0B92389A2886188B1
:102E30002846FFF766FFE1882846FFF759FF2389F8
:102E40003A4631462846FFF712FFE1882846FFF749
:102E500001FF13E02389A28861882846FFF707FF56
:102E6000E1882846FFF7F6FE23893A463146284690
:102E7000FFF747FFE1882846FFF73AFFBDE8F081FA
:102E80000A884B881A438B881A43CB881A430B89CC
:102E90001A434B891A438B891A43A0F84420704780
:102EA0004FF6FF71818000210180C1804180017255
:102EB00070470021018041808180C1800181418172
:102EC0008181C18170470021018041800121818081
:102ED0000021C180018170470021018041808180F3
:102EE000C18001814181818170470000002C014037
:102EF000003401400004004000080040000C004085
:102F000021B1028842F00102028004E002884FF6FB
:102F1000FE731A400280704731B1B0F8442042F489
:102F20000042A0F8442005E0B0F84420C2F30E02AD
:102F3000A0F8442070471AB183890B43838102E0D3
:102F400083898B43838170478182704741EA020302
:102F5000A0F8483070471AB183890B43838102E09F
:102F600083898B438381704701894FF6F872114042
:102F7000018170470A46002101894FF68F7319407D
:102F800011430181704730B504460D46294620465D
:102F9000FFF7F0FF208940F00700208130BD2DE9C8
:102FA000F04104460D4616461F46602D06D13B46AD
:102FB000012231462046FFF75AFE05E03B4601223A
:102FC00031462046FFF79DFE29462046FFF7D2FFF7
:102FD000208940F007002081BDE8F08130B50C4623
:102FE00000210189C9B24FF6FF7505EA0325154393
:102FF00025432943018130BD2DE9F04105460E46A8
:1030000017469846002443463A4631462846FFF77D
:10301000E5FF2C894FF6F870044044F007044FF6A2
:103020008F70044044F070042C81BDE8F081F0B54D
:1030300004460D4616461F463B4632462946204664
:10304000FFF7CCFF208940F480402081F0BD01854E
:10305000828270470A46002101884FF68F7319401B
:10306000114301807047F0B50C4615461E460021FD
:10307000002200230189028B038C4FF6F877394038
:1030800021434FF6FC473A4040F201173A434FF6CE
:10309000DD773B404FF6FF7707EA06172F433B43A8
:1030A000018102830384F0BD0A460021018B4FF6A3
:1030B0008F7319401143018370470A460021018B29
:1030C00048F6FF7319404FF6FF7303EA02231943D2
:1030D000018370470A460021818B4FF68F73194098
:1030E0001143818370470A460021818B48F6FF73A4
:1030F00019404FF6FF7303EA022319438183704797
:1031000021B1028842F08002028004E002884FF67A
:103110007F731A400280704721B1828842F0040216
:10312000828004E082884FF6FB731A4082807047E9
:1031300021B1828842F00802828004E082884FF642
:10314000F7731A408280704721B1828842F00102F1
:10315000828004E082884FF6FE731A4082807047B6
:103160000A460021018B4FF6F77319401143018382
:1031700070470A460021018B4FF2FF7319404FF64A
:10318000FF7303EA02231943018370470A460021B3
:10319000818B4FF6F77319401143818370470A46BC
:1031A0000021818B4FF2FF7319404FF6FF7303EA42
:1031B00002231943818370470A460021018B4FF691
:1031C000FB7319401143018370470A460021018BAC
:1031D0004FF6FF3319404FF6FF7303EA02231943FA
:1031E000018370470A460021818B4FF6FB7319401B
:1031F0001143818370470A460021818B4FF6FF33CC
:1032000019404FF6FF7303EA022319438183704785
:103210000A460021018B4FF67F7319401143018349
:1032200070470A460021018BC1F30E014FF6FF7370
:1032300003EA02231943018370470A460021818B68
:103240004FF67F7319401143818370470A4600216E
:10325000818BC1F30E014FF6FF7303EA022319437A
:10326000818370470A460021018C4FF6FD73194097
:103270001143018470470A460021018C4FF6F77311
:1032800019401143018470470A460021018C4FF612
:10329000DF7319404FF6FF7303EA021319430184E9
:1032A00070470A460021018C4FF67F7319404FF694
:1032B000FF7303EA02131943018470470A46002191
:1032C000018C4FF6FF5319404FF6FF7303EA0223B8
:1032D0001943018470470A460021018C4FF2FF73A5
:1032E00019404FF6FF7303EA022319430184704724
:1032F0000A460021018C4DF6FF7319404FF6FF730B
:1033000003EA023319430184704730B500230124D6
:103310008C40A3B2048C9C430484048C02FA01F513
:10332000ADB22C43048430BD30B5002304248C405E
:10333000A3B2048C9C430484048C02FA01F5ADB260
:103340002C43048430BD70B5034600200024184689
:10335000183001258D40ACB21D8CA5431D8409B1E8
:10336000082909D100EB6100056825F070050560AA
:103370000568154305600EE00D1FC5F34E05284492
:10338000056825F4E045056005684FF6FF7606EA16
:1033900002263543056070BD21B1028842F0020269
:1033A000028004E002884FF6FD731A4002807047E5
:1033B00021B1028842F00402028004E002884FF644
:1033C000FB731A400280704721B1828842F080026C
:1033D000828004E082884FF67F731A4082807047B3
:1033E00002884FF6F7731A40028002880A4302806F
:1033F000704782884FF68F731A40828082880A4312
:103400008280704702894FF6F8731A400281028960
:103410000A430281704702894FF67F731A40028186
:1034200002890A4302817047818470478185704711
:10343000818670470187704781877047A0F84010E8
:10344000704702884FF6FF431A40028002880A4301
:10345000028070470146888E70470146088F70478A
:103460000146888F70470146B1F840007047014619
:10347000888C70470146088D704702460020138AE9
:103480000B400BB1012000E000207047CA430282CC
:10349000704730B50246002000230024158A05EA53
:1034A0000103958905EA010413B10CB1012000E084
:1034B000002030BDCA43028270470000002044490A
:1034C0000860091D0860091D0860091D0860414861
:1034D0003F4914310860704700213D498279002A34
:1034E0003AD00A46126803689A430B461A600A1DCE
:1034F000126803689A430B1D1A60027911440A6826
:1035000003681A430A60324A0832126803689A4311
:103510002F4B08331A601A1D126803689A432C4B0C
:103520000C331A604279102A0ED11A1F12680368F0
:103530001A43274B08331A601A1D126803681A438E
:10354000234B0C331A600DE02149427911440A687B
:1035500003681A430A6005E0027911440A680368A7
:103560009A430A6070470021016001710C2141718A
:103570000021817170471649103109680143144ACE
:1035800010321160704701460020114A143212684F
:103590000A400AB1012000E0002070470C491431B4
:1035A00008607047014600200022094B1B6803EAAF
:1035B0000102074B14331B680B4013B10AB1012001
:1035C00000E0002070470249143108607047000095
:1035D00000040140FFFF0F0010B50446FA48844282
:1035E00008D101214015FEF79FFD00216015FEF76F
:1035F0009BFD17E0F548844208D101210015FEF734
:1036000093FD00212015FEF78FFD0BE0F04884426A
:1036100008D10121C803FEF787FD00214FF40040C7
:10362000FEF782FD10BD30B5024600200023506831
:10363000E84C20400D790C6844EA05242043506092
:103640009068E54C2040D1E902542C434D7944EA7E
:10365000450420439060D06A20F470000C7C641E06
:10366000E4B2234340EA0350D06230BD0021016040
:10367000017141718160C16001210174704721B104
:10368000826842F00102826003E0826822F0010257
:103690008260704721B1826842F48072826003E0E8
:1036A000826822F480728260704710B50023CBB22A
:1036B0001AB144681C43446002E044689C4344607F
:1036C00010BD816841F0080181607047014600200B
:1036D0008A6802F008020AB1012000E00020704769
:1036E000816841F0040181607047014600208A68CA
:1036F00002F004020AB1012000E00020704721B16D
:10370000826842F4A002826003E0826822F4A00290
:1037100082607047014600208A6802F480020AB184
:10372000012000E00020704710B50A460021002368
:10373000416821F46041531E41EA4331416010BDAC
:1037400021B1426842F40062426003E0426822F420
:10375000006242607047F0B504460D46002000212B
:10376000092D11DDE068A5F10A0606EB46070726DC
:1037700006FA07F18843A5F10A0606EB460603FAA6
:1037800006F10843E0600CE0206905EB45070726D9
:1037900006FA07F1884305EB450603FA06F10843EC
:1037A0002061072A0FDA606B561E06EB86071F267C
:1037B00006FA07F18843561E06EB860605FA06F15F
:1037C0000843606322E00D2A0FDA206BD61F06EB58
:1037D00086071F2606FA07F18843D61F06EB8606E2
:1037E00005FA06F10843206310E0E06AA2F10D0635
:1037F00006EB86071F2606FA07F18843A2F10D069D
:1038000006EB860605FA06F10843E062F0BD21B139
:10381000826842F48012826003E0826822F480129F
:10382000826070470146C86C80B2704766484C3071
:103830000068704721B1426842F48062426003E050
:10384000426822F480624260704721B1426842F4CB
:103850008052426003E0426822F480524260704726
:103860000A460021816821F4E041114381607047DC
:1038700021B1826842F40042826003E0826822F44F
:1038800000428260704721B1826842F40212826075
:1038900003E0826822F40212826070470146002031
:1038A0008A6802F400120AB1012000E0002070478B
:1038B000F0B504461546002000220026092911DD36
:1038C000E068A1F10A0707EB470C072707FA0CF29B
:1038D0009043A1F10A0707EB470703FA07F21043E9
:1038E000E0600CE0206901EB410C072707FA0CF2BD
:1038F000904301EB410703FA07F210432061A06BEC
:10390000C0F30156EF1C06F1010CA7EB0C0707EB07
:10391000870C1F2707FA0CF29043EF1C06F1010CED
:10392000A7EB0C0707EB870701FA07F21043A06328
:10393000F0BD10B50A4600210023816B21F440112F
:10394000531E41EA0351816310BD08B50023009363
:103950000090009B0B440093009B1A6008BD08B5C3
:10396000024600200090009201F12800009B1844BC
:1039700000900098006880B208BD0A4600214168A6
:10398000164B194011434160704741628262704793
:103990000A460021416821F01F0111434160704730
:1039A00040B109490831096841F40001064A08326A
:1039B000116007E004490831096821F40001024A56
:1039C00008321160704700000024014000280140C7
:1039D000003C0140FFFEF0FFFDF7F1FFFFFD3FFF60
:1039E0000246002013680B400BB1012000E00020CC
:1039F0007047CA430260704770B50246002000233A
:103A000000240B125568CEB205EA060415681D4065
:103A100015B10CB1012000E0002070BD00220A1297
:103A2000D34303607047000010B58021914803F034
:103A30002BFD00209049088010BD8F48008808B9F0
:103A4000012070478C4800888C490988884203D13E
:103A5000002089490880F4E7874800888749088062
:103A60000120EEE72DE9F04104460D46C826204628
:103A700003F029FC87B23A4621468148FDF72EFE25
:103A80000FE0FFF7DAFF48B929467A4803F0E5FB73
:103A900020B1FFF7C9FF0020BDE8F0810A20FDF743
:103AA0004CFD301EA6F10101CEB2EAD10120F3E7B0
:103AB00030B589B004460D46FFF7B6FF2A4671A11E
:103AC00001A803F0F1F973A101A8FFF7CBFF20B91A
:103AD0002A4621466A48FDF701FE09B030BD70B59F
:103AE0000546002400BFFFF7A8FF80B96AA161481E
:103AF00003F0B3FB044654B13A21204603F091FB96
:103B0000044614B1641C204670BD0020FCE705206B
:103B1000FDF713FD681E85B2002DE4DC0020F3E7FD
:103B200008B501210420FEF7E5FA10208DF8030006
:103B30008002ADF8000003208DF802006946584865
:103B4000FEF71CF800224FF480415548FEF7C7F8F5
:103B5000FA20FDF7F2FC012291035148FEF7BFF86D
:103B60004FF4FA70FDF7E9FCFFF75EFF4DA14F48F7
:103B7000FDF7CDFD03E04FF4FA70FDF7DEFC4CA13C
:103B80004CA0FFF76FFF0028F5D14CA14748FDF787
:103B9000BEFD42A14CA0FFF765FF4FF4FA70FDF7A0
:103BA000CCFC3EA14BA0FFF75DFF4FF4FA70FDF790
:103BB000C4FC4CA13D48FDF7AAFD03E04FF4FA70A8
:103BC000FDF7BBFC3AA14AA0FFF74CFF0028F5D156
:103BD0004BA13648FDF79BFD03E04FF4FA70FDF76B
:103BE000ACFC33A14AA0FFF73DFF0028F5D14CA162
:103BF0002E48FDF78CFD03E04FF4FA70FDF79DFCB5
:103C00004AA14CA0FFF72EFF0028F5D151A127486B
:103C1000FDF77DFD03E04FF4FA70FDF78EFC51A136
:103C200052A0FFF71FFF0028F5D15CA11F48FDF748
:103C30006EFD08BD10B540F225511148FEF77EFC1F
:103C4000B0B10D480088802802D300200A490880BE
:103C50000B48001D0088C1B2074802880088401C3C
:103C6000054B18800348815420210548FEF75DFC70
:103C700010BD0000F40500204E0000205000002080
:103C80000044004041542B43495053454E443D2588
:103C9000640D0A003E0000004950442C0000000062
:103CA00000100140302E2041540D0A000038014020
:103CB0004F4B000041540D0A00000000312E2052ED
:103CC00053540D0A0000000041542B5253540D0A66
:103CD0000000000041542B434950434C4F53450DC5
:103CE0000A000000322E2043574D4F44450D0A0074
:103CF00041542B43574D4F44453D310D0A000000C0
:103D0000332E2041542B4357444843500D0A0000A2
:103D100041542B4357444843503D312C310D0A0048
:103D2000342E2043574A41500D0A0000474F54207B
:103D30004950000041542B43574A41503D22766977
:103D4000766F5335222C22313233343536373822D0
:103D50000D0A0000352E2043495053544152540D52
:103D60000A000000434F4E4E4543540041542B433C
:103D7000495053544152543D22544350222C226DF9
:103D80007174742E79796273687561692E746F70BD
:103D9000222C313838330D0A00000000362E204521
:103DA00053503832363620496E6974204F4B0D0A15
:103DB0000000000070B504460E460025206898B942
:103DC00001202073304602F0F1FF20602068E0B14E
:103DD00000206060A66003E00020216848556D1C4B
:103DE000A068A842F8D810E00220207303E0002069
:103DF000216848556D1CA068A842F8D80020606072
:103E0000A068B04201D20020206070BD10B5044609
:103E1000207B012802D1206802F0F7FF00202060FB
:103E20006060A060207310BD0246002301230DE0F6
:103E300002F07F000870D2092AB1087840F08000B3
:103E40000870491C01E0184670475B1C042BEFDD2D
:103E50004FF0FF30F8E7F0B504460D462646012343
:103E600000201060002114E0775C07F07F071068E5
:103E700007FB03001060705C00F0800008B9481C6C
:103E8000F0BDDB01B3F5001F02D36FF00100F7E7CF
:103E9000491CA942E8DB4FF0FF30F1E7F8B50446D2
:103EA000FF2720780511012D01DB0E2D01DD38469D
:103EB000F8BD032D24D1002000906A460421601C27
:103EC000FFF7C9FF2044461C0098022803D320783E
:103ED00000F0010008B1FF20EAE77078317840EA8D
:103EE0000120801C0099884201D9FF20E0E7F8A159
:103EF000B01C03F0B2F908B10F2700E0032700E07F
:103F00002F463846D4E72DE9FF4F83B082468B46D3
:103F10009146159C0025002002900F2701904846ED
:103F200003F0D1F90FFA80F8B9F1000F03D10120A5
:103F300007B0BDE8F08F08F10200384487B210984E
:103F400008B145F00205129878B145F004051298C1
:103F500003F0B9F9C0B20290139803F0B4F9014626
:103F60000298001D0844384487B2119820B10128F6
:103F700004D0022808D104E000BF07E045F00C059A
:103F800004E045F0140501E00220D1E700BF1498D9
:103F900008B145F02405BAF1000F02D0BBF1000FC3
:103FA00001D10320C4E745F0C005504603F08BF96A
:103FB0000646584603F087F93044001D384487B25E
:103FC00039462046FFF7F6FE206808B90420AFE71F
:103FD0003946206803F058FA10216268501C60606E
:103FE00020688154D4E90023D118781FFFF71CFF03
:103FF00000B201900198002804DA2046FFF706FF7E
:10400000052095E7616801980844606000216268B6
:10401000501C60602068815404216268501C6060FC
:10402000206881544D216268501C60602068815472
:1040300051216268501C606020688154542162687C
:10404000501C6060206881546268501C6060206869
:10405000815404216268501C60602068815461684A
:10406000481C6060206845540698010A6268501C2C
:104070006060206881540698C1B26268501C60601C
:1040800020688154C8F307216268501C6060206872
:1040900081546268501C6060206800F80280D4E996
:1040A000001288184246494603F0C5F8606840444B
:1040B000606005F00400B8B30026139808B986A024
:1040C0001390129803F0FFF886B2310A6268501C10
:1040D0006060206881546268501C6060206886546B
:1040E000D4E9001288183246129903F0A4F86068E7
:1040F00030446060139803F0E6F886B2310A6268D3
:10410000501C6060206881546268501C60602068A8
:104110008654D4E9001288183246139903F08BF8BC
:1041200060683044606000BF05F08000C8B1504650
:1041300003F0C9F886B2310A6268501C60602068DA
:1041400081546268501C606020688654D4E9001273
:1041500088183246514603F06EF86068304460605B
:1041600000BF05F04000C8B1584603F0ACF886B275
:10417000310A6268501C6060206881546268501C7B
:10418000606020688654D4E9001288183246594687
:1041900003F051F860683044606000BF0020C7E65B
:1041A00010B5044602212046FFF704FE206808B936
:1041B000012010BDE0216268501C606020688154BD
:1041C00000216268501C6060206881540020F0E784
:1041D00001464878022801D001207047887810B144
:1041E0008878012801D1C878F7E7FF20F5E72DE9A5
:1041F000FF4F83B0834617469946139C002500263F
:104200000020029001908046BBF1000F03D10120F5
:1042100007B0BDE8F08F00260AE00498805D2328EF
:1042200003D00498805D2B2801D10220F0E7761C92
:104230000498805D0028F0D148F03008119808B14A
:1042400048F0010806EB0900851C109820B10128F0
:1042500004D002280AD105E000BF09E048F00208B6
:10426000AD1C05E048F00408AD1C01E00320CFE7D9
:1042700000BF67B33878022821D14FF0000A00BF91
:1042800050460AF1010A385C7D28F9D1AAF1030AE7
:104290000AF1070002900298A9EB000AE81CA0EBC3
:1042A0000A012046FFF786FD206808B90420AFE721
:1042B000EA1CA2EB0A01206803F0E6F81FE0691D82
:1042C0002046FFF777FD206840B90420A0E70AE008
:1042D000246372657100000000000000691D206801
:1042E00003F0D2F80BE0691D2046FFF763FD20685C
:1042F00008B904208CE7691D206803F0C5F86168DF
:10430000481C6060206800F80180D4E90002811830
:104310002846FFF789FD01900198002804DA20461D
:10432000FFF774FD052073E7616801980844606039
:10433000C6F307216268501C60602068815462687F
:10434000501C606020688654D4E9001288183246F8
:10435000049902F070FF606830446060109860B1AA
:104360004FEA1B216268501C6060206881546268BB
:10437000501C6060206800F802B0C7B1387802288D
:104380000BD1D4E9001288183946029A03F005F8D7
:10439000616802980844606009E0D4E90012881856
:1043A0004A46394602F0F9FF6068484460600020E0
:1043B0002EE72DE9FF4107460D4690461E460A9C12
:1043C00001200021CDE90001EB1C0A46FAA1CDE94C
:1043D00002040A20FFF70BFF88B96168481C60607F
:1043E00020684654C5F307216268501C606020684D
:1043F00081546268501C60602068855403E001208D
:1044000004B0BDE8F0810020FAE72DE9F04F85B057
:1044100080460D4691460120049000270026002486
:104420004FF0000A404602F04EFF00F10D0B5846D7
:1044300002F0BCFC07461FB9049805B0BDE8F08F38
:104440004246DEA1384602F02FFD384602F03BFF1F
:10445000C6B2F01D00EB050AAAEB050002F0A6FCAF
:10446000044624B9384602F0D0FC0498E5E702205F
:10447000207000206070A67032463946E01C02F0C1
:104480008CFF290EF01C2154C5F30741301D215427
:10449000C5F30721701D2154B01D255401200021B2
:1044A000CDE9000153462246C3A1CDE902090A2005
:1044B000FFF79DFE08B900200490384602F0A5FCE5
:1044C000204602F0A2FC0498B7E72DE9F8438046A5
:1044D0000C4615461E462F2108F1060002F0A1FEEB
:1044E00007460020009017B90120BDE8F8837F1C23
:1044F0006A46042108F10100FFF7ADFC252002F017
:1045000055FC2060206808B90220EEE725212068CC
:1045100002F0BAFF24223946206802F03EFF243719
:1045200000982C3830803188481C02F03FFC28600D
:10453000286820B9206802F068FC0320D5E732889B
:10454000511C286802F0A0FF32883946286802F022
:1045500024FF0020C9E72DE9FF5F07460D4690467E
:10456000384602F0B0FE86B2284602F0ACFE1FFAD2
:1045700080FA4FF00009F01D02F018FC04461CB947
:10458000012004B0BDE8F09FF11D204602F07CFF41
:104590008EA0016821608088A0803246394620467E
:1045A00002F049FE284602F08EFE834601200021DB
:1045B00000915B462A46CDE90208019121460A2076
:1045C000FFF715FE10B94FF0000901E04FF00109A7
:1045D000204602F01AFC4846D3E72DE9FF5F8046EB
:1045E000174699460E9C0026B246B3460025B8F100
:1045F000000F03D1012004B0BDE8F09F0BE057F895
:10460000250008B90220F6E757F8250002F05BFE06
:104610000644681CC5B24D45F1DB09EB4900801C1E
:1046200000EB060A0AF105012046FFF7C3FB2068EC
:1046300008B90320DFE782216268501C60602068AF
:104640008154D4E9000281185046FFF7EDFB0FFAC0
:1046500080FBBBF1000F04DA2046FFF7D7FB0420F4
:10466000C9E76068584460604FEA18216268501CCE
:104670006060206881546268501C6060206800F8A7
:104680000280002524E057F8250002F01CFE0646B3
:10469000C6F307216268501C60602068815462681C
:1046A000501C606020688654D4E90023D01857F865
:1046B0002510324602F0BFFD60683044606001980A
:1046C000C1B26268501C606020688154681CC5B229
:1046D0004D45D8DB00208EE70146FF208A78A2B93D
:1046E000CA78142A11D10A7932B1012A05D0022AD6
:1046F00004D0802A06D103E000BF00BF002003E001
:10470000012001E0022000BF00BF70472DE9F05FEB
:1047100080460F4691461C460026B246B346002509
:10472000B8F1000F02D10120BDE8F09F0BE057F86F
:10473000250008B90220F7E757F8250002F0C3FD6D
:104740000644681CC5B24D45F1DB022000EB490070
:1047500000EB060A0AF105012046FFF72BFB206853
:1047600008B90320E0E7A2216268501C606020685D
:104770008154D4E9000281185046FFF755FB0FFA27
:1047800080FBBBF1000F04DA2046FFF73FFB04205B
:10479000CAE76068584460604FEA18216268501C9C
:1047A0006060206881546268501C6060206800F876
:1047B000028000252CE00000246470007B226473DA
:1047C0005F6964223A222573227D0000246372739C
:1047D000702F000057F8250002F075FD0646C6F35D
:1047E00007216268501C6060206881546268501C18
:1047F000606020688654D4E90023D01857F825104B
:10480000324602F018FD606830446060681CC5B232
:104810004D45DFDB002087E7014601208A781AB981
:10482000CA781E2A00D1002070472DE9FC5F81461E
:104830000D4614461E46DDE90C8B99F8000000F089
:104840000F0A002001900AF008000090CAF341000E
:104850008BF8000001AA042109F10100FFF7FBFA1F
:104860004844471C0198022802D30AF0010010B105
:10487000FF20BDE8FC9F7878397840EA012020804D
:104880002088801C0199884201D9FF20F1E7AFF20E
:10489000C051B81C02F0E1FC08B10F20E9E79BF819
:1048A000000020B101283DD0022877D13BE00098DC
:1048B00008B1FF20DDE72188481C02F077FA286064
:1048C000286808B9FF20D4E72288511C286802F024
:1048D000DBFD2288B91C286802F05FFD0198801E6C
:1048E0002188401AA8F80000B8F80010481C02F00F
:1048F0005DFA3060306820B9286802F086FAFF203F
:10490000B7E7B8F80020511C306802F0BDFDB8F8D8
:104910000020B4F800C0BB1C0CEB0301306802F0AF
:104920003CFD4FE000BF2088801C0199884201D9DE
:10493000FF209EE72088C01C395C2088801C385CE2
:1049400041EA00210E9801800E9808B9FF2090E7F7
:104950002188481C02F02AFA2860286808B9FF203C
:1049600087E72288511C286802F08EFD2288B91C36
:10497000286802F012FD0198001F2188401AA8F84B
:104980000000B8F80010481C02F010FA30603068DF
:1049900028B9286802F039FAFF206AE710E0B8F871
:1049A0000020511C306802F06FFDB8F80020B4F808
:1049B00000C03B1D0CEB0301306802F0EEFC01E08F
:1049C000FF2056E700BF2B21284602F02AFC20B921
:1049D0002321284602F025FC08B1FF2049E70020EA
:1049E00047E770B505460C4604212046FFF7E2F97B
:1049F000206808B9012070BD40216268501C6060C9
:104A00002068815402216268501C606020688154D3
:104A100029126268501C6060206881546268501CD2
:104A20006060206885540020E5E701464878022848
:104A300001D001207047887820B9C8780A2801D1B0
:104A40000020F7E70120F5E770B505460C46042184
:104A50002046FFF7AFF9206808B9012070BD50214A
:104A60006268501C60602068815402216268501C9A
:104A700060602068815429126268501C6060206860
:104A800081546268501C6060206885540020E5E70E
:104A900001464878022801D001207047887820B963
:104AA000C8780A2801D10020F7E70120F5E770B5A2
:104AB00005460C4604212046FFF77CF9206808B91A
:104AC000012070BD62216268501C606020688154C2
:104AD00002216268501C606020688154291262685B
:104AE000501C6060206881546268501C60602068BF
:104AF00085540020E5E702465078022801D00120C5
:104B000070479078B0EB112F05D1D078CBB2984296
:104B100001D10020F4E70120F2E770B505460C460C
:104B200004212046FFF746F9206808B9012070BD2E
:104B300070216268501C60602068815402216268A4
:104B4000501C60602068815429126268501C6060AB
:104B5000206881546268501C606020688554002081
:104B6000E5E701464878022801D00120704788789F
:104B700020B9C8780A2801D10020F7E70120F5E71D
:104B800010B5044602212046FFF714F9206808B941
:104B9000012010BDC0216268501C606020688154F3
:104BA00000216268501C6060206881540020F0E79A
:104BB00030B58BB000200790089009900A9001252D
:104BC000DAA0DDA3DDA2E0A10090EB48FCF79FFD99
:104BD00007A8002102910391CDE9041000912B0256
:104BE000D2A20191D4A1D5A0FFF78DF9002842D11E
:104BF000089A91B20798FEF75BFFFA20FEF76FFF65
:104C00000446002C33D02046FFF748F902282ED165
:104C10002046FFF7DDFA062823D2DFE800F003097B
:104C20000E13181DD5A1D448FCF771FD00251DE019
:104C3000D7A1D148FCF76BFD18E0DCA1CE48FCF70A
:104C400066FD13E0E2A1CC48FCF761FD0EE0E8A1AF
:104C5000C948FCF75CFD09E0EEA1C748FCF757FD29
:104C600004E0F7A1C448FCF752FD00BF00BF07A84D
:104C7000FFF7CCF803E0F9A1BF48FCF748FD284650
:104C80000BB030BD70B586B004460D46002600203E
:104C9000029003900490059007E054F82620F8A1B4
:104CA000B548FCF734FD701CC6B2AE42F5DB02A875
:104CB0002B462246002100901420FFF78EFC38B9C5
:104CC000039A91B20298FEF7F3FE02A8FFF79EF84E
:104CD00006B070BD70B588B005460C460020049043
:104CE00005900690079023462A46EBA1A248FCF7C0
:104CF0000EFD204602F0E7FA064604A80121002234
:104D000000923346CDE901210390224629460A202C
:104D1000FFF76DFA38B9059A91B20498FEF7C8FE0C
:104D200004A8FFF773F808B070BD2DE9F04F8FB0FD
:104D3000814600200B900C900D900E900A900990E7
:104D400008900790002706900026002582464846D6
:104D5000FFF7A4F80746F81E0D2871D2DFE800F02F
:104D60001CA4ADC7E570E470E3707070070007AB7A
:104D70000AAA09A94846FFF7A8FB06465EB9BDF88E
:104D80001C000090CCA17C48DDE90923FCF7BFFCA6
:104D90000BA8FFF73BF851E2D04806A907AA0AABD7
:104DA000CDE90021029008AA09A94846FFF73DFD78
:104DB0000646002E77D1BDF81C000A99CDE90010F7
:104DC000BDF82030C6A16C48099AFCF7A0FC0A98EF
:104DD00001F010F98046B8F1000F08D100F0A6FAF2
:104DE00083465A46CDA16448FCF791FC58E0D0A117
:104DF000404601F005FD0446CFA1206902F02DFADE
:104E000068B1CEA1404601F0FBFC0446606918B1D0
:104E10000020CC49086002E00120CA490860CAA10C
:104E2000206902F01AFA80B1C4A1404601F0E8FC02
:104E30000446606928B10020C2491C31086004E0C2
:104E4000F9E10120BF491C310860C1A1206902F0CD
:104E500004FA78B1B9A1404601F0D2FC0446606979
:104E600020B10020B7492031086003E00120B54996
:104E700020310860B8A1206902F0EFF980B1AFA13C
:104E8000404601F0BDFC0446606918B10120B449F8
:104E9000087002E00020B24908700020B149087093
:104EA000404600F0A5FAC9E14846FFF7BEFD18B933
:104EB000ADA13148FCF72BFCC0E14846FFF7E8FD07
:104EC000A0B9B1A12C48FCF722FC0BA90A20FFF7DE
:104ED000EEFD58B9B2A12848FCF719FC0C9A91B222
:104EE0000B98FEF7E5FD0BA8FEF790FFA6E17B48C7
:104EF00001884846FFF7FFFDA0B9AFA11E48FCF7A7
:104F000006FC0BA90A20FFF708FE58B9B0A11A4801
:104F1000FCF7FDFB0C9A91B20B98FEF7C9FD0BA8AC
:104F2000FEF774FF8AE178E169E15FE13132333401
:104F3000353637380000000079796200736D617290
:104F400074686F6D650000004F6E654E65745F4458
:104F500065764C696E6B0D0A50524F49443A2025D4
:104F6000732C09415549463A2025732C094445566E
:104F700049443A25730D0A000038014054697073A2
:104F80003A09C1ACBDD3B3C9B9A60D0A00000000EF
:104F90005741524E3A09C1ACBDD3CAA7B0DCA3BA3F
:104FA000D0ADD2E9B4EDCEF30D0A00005741524E18
:104FB0003A09C1ACBDD3CAA7B0DCA3BAB7C7B7A87A
:104FC000B5C4636C69656E7469640D0A0000000005
:104FD0005741524E3A09C1ACBDD3CAA7B0DCA3BAFF
:104FE000B7FECEF1C6F7CAA7B0DC0D0A000000007C
:104FF0005741524E3A09C1ACBDD3CAA7B0DCA3BADF
:10500000D3C3BBA7C3FBBBF2C3DCC2EBB4EDCEF38F
:105010000D0A00005741524E3A09C1ACBDD3CAA790
:10502000B0DCA3BAB7C7B7A8C1B4BDD328B1C8C84C
:10503000E7746F6B656EB7C7B7A8290D0A0000004B
:105040004552523A09C1ACBDD3CAA7B0DCA3BACE0F
:10505000B4D6AAB4EDCEF30D0A0000005741524E6B
:105060003A094D5154545F5061636B6574436F6EE0
:105070006E656374204661696C65640D0A0000000A
:1050800053756273637269626520546F7069633A25
:105090002025730D0A0000005075626C697368204A
:1050A000546F7069633A2025732C204D73673A2042
:1050B00025730D0A00000000636D6469643A2025C1
:1050C000732C207265713A2025732C207265715FF4
:1050D0006C656E3A2025640D0A0000005200002025
:1050E000746F7069633A2025732C20746F70696344
:1050F0005F6C656E3A2025642C207061796C6F615D
:10510000643A2025732C207061796C6F61645F6C48
:10511000656E3A2025640D0A000000004572726F2A
:1051200072206265666F72653A205B25735D0A00C6
:105130006F626A65637400004C45440076616C756B
:105140006500000090012142436875616E00000017
:1051500046656E67000000004245455000000000B3
:105160000000002001000020546970733A094D517D
:105170005454205075626C6973682053656E6420C6
:105180004F4B0D0A00000000546970733A095265D4
:1051900076205075626C6973685265630D0A000071
:1051A000546970733A0953656E64205075626C6976
:1051B000736852656C0D0A00546970733A09526540
:1051C00076205075626C69736852656C0D0A000038
:1051D000546970733A0953656E64205075626C6946
:1051E0007368436F6D700D0A000000004846FFF7BA
:1051F000B8FC18B929A12F48FCF789FA1EE04846E7
:10520000FFF76AFA20B92CA12A48FCF780FA03E0DC
:1052100030A12848FCF77BFA10E04846FFF7FCFA7B
:1052200020B933A12348FCF772FA03E037A12148E3
:10523000FCF76DFA02E04FF0FF3600BF00BFFEF74B
:10524000F3FB701C10B90FB0BDE8F08F7D210A98F8
:1052500001F0E7FF0546A5B1701C90B16D1C06E09A
:1052600015F8012B50460AF1010A03A90A542878BF
:10527000302802DB28783928F2DD03A801F0C4FFCA
:1052800082460F2F01D0032F05D1099801F0BDFDF3
:105290000A9801F0BAFD00BFD5E7000054697073A9
:1052A0003A09526576205075626C697368436F6D78
:1052B000700D0A0000380140546970733A094D516D
:1052C000545420537562736372696265204F4B0DAD
:1052D0000A000000546970733A094D515454205328
:1052E0007562736372696265204572720D0A00000F
:1052F000546970733A094D51545420556E53756278
:10530000736372696265204F4B0D0A0054697073B4
:105310003A094D51545420556E5375627363726946
:105320006265204572720D0A00000000FE480068A8
:10533000704770B504460D462CB9AC4201D001202F
:1053400070BD0020FCE70DB90120F9E705E02078E9
:1053500008B90020F4E7641C6D1C207801F07CFD86
:105360000646287801F078FD8642F0D0207801F0DA
:1053700073FD0646287801F06FFD301AE0E770B53E
:105380000446204601F09FFF451C2846E74909686E
:105390008847061E00D170BD2A462146304601F0DE
:1053A000FCFF3046F7E730B9E149E04A1160E149D6
:1053B000E14A11607047016809B1016800E0DC4909
:1053C000DA4A1160416809B1416800E0D949DA4A16
:1053D000116000BFEEE710B52820D449096888475E
:1053E00004461CB12821204602F070F8204610BD6A
:1053F00070B5044622E02568A08900F4807020B9C9
:10540000A06810B1A068FFF7F3FFA08900F48070D6
:1054100028B9206918B1C849206909688847A08956
:1054200000F4007028B9206A18B1C349206A0968DD
:1054300088472046C049096888472C46002CDAD1A5
:1054400070BD2DE9F04F8BB083468A46002004469C
:1054500005460026B94F002188468946099001205B
:1054600008909AF800002D2802D1B54F0AF1010AE0
:105470009AF80000302801D10AF1010A9AF80000D8
:10548000312822DB9AF8000039281EDC00BF1AF808
:10549000011BA1F1300004F0B2FB0022A94BCDE9C1
:1054A00006012046294604F0FDFBCDE90401DDE9B3
:1054B000062304F025F904460D469AF8000030282A
:1054C00003DB9AF800003928E1DD9AF800002E2865
:1054D00030D19AF8010030282CDB9AF801003928E5
:1054E00028DC0AF1010A00BF1AF8011BA1F1300003
:1054F00004F085FB0022934BCDE9060120462946A6
:1055000004F0D0FBCDE90401DDE9062304F0F8F84E
:1055100004460D460022894B4046494604F0E8FD0A
:10552000804689469AF80000302803DB9AF800008C
:105530003928D9DD9AF80000652803D09AF80000D0
:10554000452823D10AF1010A9AF800002B2802D13C
:105550000AF1010A08E09AF800002D2804D14FF062
:10556000FF3008900AF1010A08E01AF8010B303800
:10557000099901EB810100EB410009909AF80000C4
:10558000302803DB9AF800003928EEDDDDE9082138
:1055900001FB02F004F033FB42464B46CDE900012B
:1055A00004F0AEF802460B46CDE902010020654941
:1055B00003F036FB22462B46CDE90601304639463C
:1055C00004F070FBCDE90401DDE9062304F06AFB79
:1055D00004460D46CBE906452046294604F0E0FA8C
:1055E000CBF814000320CBF80C0050460BB0BDE8FC
:1055F000F08F0146491E41EA610141EAA10141EAF9
:10560000211141EA212141EA2141481C70472DE93D
:10561000F04104460E460CB1206810B90020BDE8E8
:10562000F081A06806446068B04203DBA16820688E
:105630000844F4E73046FFF7DCFF074638463B49AD
:105640000968884705463DB93B492068096888478D
:10565000002060602060E2E725B12846D4E900120E
:1056600001F09BFE3449206809688847676025601F
:10567000A0682844D3E770B504460CB1206808B987
:10568000002070BDA16820684518284601F01BFE67
:10569000A1680844F5E72DE9FC4782460E464FF025
:1056A0000009DAE90645002213462046294604F09F
:1056B0003BFA13D12EB102213046FFF7A8FF8146F5
:1056C00004E002201949096888478146B9F1000FB2
:1056D00003D01DA00088A9F800009FE0DAF81400AC
:1056E00004F08DFA074622462B4604F001FD21F016
:1056F00000410022154BCDE9000104F097FA3ED895
:10570000134A144B2046294604F090FA37D8002259
:10571000114B2046294604F0C3FB30D806B31521AF
:105720003046FFF774FF19E05400002058000020B5
:10573000AD6D00080B6E00085C0000200000F03F1B
:105740000000F0BF00002440300000000000B03C2A
:105750000000C0FFFFFFDF410000E0C1814604E020
:105760001520FA49096888478146B9F1000F55D0DC
:10577000F7A14846DAF8142001F096FB4EE02EB16E
:1057800040213046FFF743FF814604E04020EF49C7
:10579000096888478146B9F1000F3FD02046294665
:1057A00003F0D0F9074622462B4604F0A1FC21F075
:1057B00000410022E74BCDE9000104F037FA0FD891
:1057C00025F000412746E44AE44B384604F02EFA1F
:1057D00006D222462B46E2A1484601F065FB1DE0B9
:1057E00025F000412746E04AE04B384604F01EFA17
:1057F00007D325F000410022DD4B384604F050FB72
:1058000006D222462B46DBA1484601F04DFB05E0BF
:1058100022462B46D8A1484601F046FB4846BDE843
:10582000FC87014600220878302806DB08783928F2
:1058300003DC08783038024415E00878412806DB9C
:105840000878462803DC0878373802440BE00878EB
:10585000612806DB0878662803DC0878573802449C
:1058600001E0002070471201491C0878302806DB4F
:105870000878392803DC08783038024415E00878C5
:10588000412806DB0878462803DC087837380244CC
:105890000BE00878612806DB0878662803DC0878C6
:1058A0005738024401E00020DCE71201491C087867
:1058B000302806DB0878392803DC087830380244C1
:1058C00015E00878412806DB0878462803DC0878CC
:1058D000373802440BE00878612806DB0878662830
:1058E00003DC08785738024401E00020BAE71201CF
:1058F000491C0878302806DB0878392803DC08784A
:105900003038024415E00878412806DB087846283C
:1059100003DC0878373802440BE00878612806DB9E
:105920000878662803DC08785738024401E0002034
:1059300098E7104696E72DE9F05F8346884608F120
:105940000104002798F80000222805D08B48C0F8F1
:1059500000800020BDE8F09F04E014F8011B5C29E2
:1059600000D1641C2078222804D0207810B1781C43
:10597000071EF2D1781C7549096888478146B9F13C
:10598000000F01D10020E5E708F101044D469EE03B
:1059900020785C2804D014F8010B05F8010B96E080
:1059A000641C2078722818D006DC622809D066288A
:1059B0000BD06E287ED10CE0742812D07528F9D156
:1059C00013E0082005F8010B7FE00C2005F8010B1F
:1059D0007BE00A2005F8010B77E00D2005F8010BAC
:1059E00073E0092005F8010B6FE0601CFFF719FF59
:1059F0000646241DB6F55C4F02D3B6F5604F00D3C2
:105A000006B962E0B6F5584F1CD3B6F55C4F19D213
:105A100060785C2802D1A078752800D055E0E01CA1
:105A2000FFF7FFFE8246A41DBAF55C4F02D3BAF51C
:105A3000604F00D349E0C6F30901504661F39F204F
:105A400000F580360427802E01D2012708E0B6F544
:105A5000006F01D2022703E0B6F5803F00D2032792
:105A60003D44012F20D0022F15D0032F0AD0042F40
:105A700024D106F0BF0040F08001681E0546017089
:105A8000B60900BF06F0BF0040F08001681E054661
:105A90000170B60900BF06F0BF0040F08001681E2B
:105AA00005460170B60900BF3548C05D3043C1B23C
:105AB000681E00E005E00546017000BF00BF3D44E0
:105AC00003E0207805F8010B00BF00BF641C2078BC
:105AD000222803D0207800287FF45AAF00202870B5
